:020000040800F2
:100000000050002075030008C5030008C503000860
:10001000C5030008C5030008C50300080000000070
:10002000000000000000000000000000C503000800
:10003000C503000800000000C5030008C503000850
:10004000C5030008C5030008C5030008C503000870
:10005000C5030008C5030008C5030008C503000860
:10006000C5030008C5030008C5030008C503000850
:10007000C5030008C5030008C5030008C503000840
:10008000C5030008C5030008C5030008C503000830
:10009000C5030008C5030008C5030008C503000820
:1000A000C5030008C5030008C5030008C503000810
:1000B000C5030008C5030008C5030008C503000800
:1000C000C5030008C5030008C5030008C5030008F0
:1000D000C5030008C5030008C5030008C5030008E0
:1000E000C5030008C5030008C503000800000000A0
:1000F0000000000000000000000000000000000000
:0C01000000000000000000005FF808F1A3
:10010C0010B5054C237833B9044B13B10448AFF345
:10011C0000800123237010BD2C040020000000007F
:10012C005005000808B5034B1BB103490348AFF356
:10013C00008008BD000000003004002050050008BD
:10014C00012830B429D015D3022811D1072937D969
:10015C000F290DD80F24A1F10803234DDBB29B000E
:10016C0028689C4002FA03F120EA0400014329604C
:10017C0030BC7047072933D90F29F9D80F20A1F1CA
:10018C0008041A4DE4B2A4002B68A04002FA04F152
:10019C0023EA000319432960EAE707291DD90F292F
:1001AC00E6D80F24A1F10800114DC0B280002B68D5
:1001BC00844002FA00F123EA040319432960D7E7CB
:1001CC000F200C4C23688900884023EA000302FAB4
:1001DC0001F11943216030BC70470F20064CF1E748
:1001EC000F20064CEEE700BF04100140040801404C
:1001FC00040C014000100140000C014000080140BB
:10020C0001281AD010D302280DD10120012A00FA9E
:10021C0001F01AD022B9124A136823EA00031360C2
:10022C00104B186070477047012A11D0002AF9D181
:10023C0001220D4B8A401A607047012A0CD0002A0B
:10024C00F0D10A4B884018607047094B1860E7E7FB
:10025C00084B8A401A607047074B8A401A607047F7
:10026C000C1001401410014014080140140C014002
:10027C001010014010080140100C0140012810D052
:10028C0009D3022805D10A4B1868C84000F00100B8
:10029C00704700207047074B1868C84000F00100F9
:1002AC007047054B1868C84000F00100704700BF4C
:1002BC000810014008080140080C01404FF480323E
:1002CC00014B1A60704700BF001002401F290BD869
:1002DC0001280BD011D3022807D101230B4A03FAB2
:1002EC0001F113680B43136070477047084B00FA19
:1002FC0001F118680143196070470123054A03FA9C
:10030C0001F113680B431360704700BF18100240D3
:10031C001C100240141002401F290CD801280CD0CC
:10032C0013D3022808D101230C4A03FA01F11368F4
:10033C0023EA0103136070477047094B00FA01F17F
:10034C00186820EA0101196070470123054A03FA75
:10035C0001F1136823EA010313607047181002407F
:10036C001C10024014100240DFF834D0002103E0CE
:10037C000C4B5B58435004310B480C4B42189A42BF
:10038C00F6D30B4A02E0002342F8043B094B9A4295
:10039C00F9D3FFF793FF00F023F800F00FF8704744
:1003AC000050002078050008000000202C040020DC
:1003BC002C0400206C040020FEE7000008B5FFF7B9
:1003CC007DFF02210846FFF781FF0021022208462B
:1003DC00FFF7B6FE002101220846FFF711FFFEE7EA
:1003EC0070B50D4E0D4D761BB61006D000240134A1
:1003FC0055F8043B9847A642F9D1094E094D00F037
:10040C00A1F8761BB61006D00024013455F8043B35
:10041C009847A642F9D170BD6C0500086C05000820
:10042C00740500086C050008024B13B1024800F07B
:10043C0005B8704700000000550400080023014671
:10044C001A46184600F01EB838B50A4C0A4D641B03
:10045C00A4100AD004F18043013B05EB8305013C59
:10046C0055F804399847002CF9D1BDE8384000F014
:10047C006FB800BF7805000874050008704700BF0E
:10048C00704700BF2DE9F8432B4D06462868984667
:10049C000F469146FFF7F2FF284B1C68D4F8483101
:1004AC00002B3DD05A681F2A0DDC02F1010C16BB43
:1004BC000232C3F804C0286843F82270FFF7E0FF4B
:1004CC000020BDE8F8831E4B7BB34FF4C870AFF32C
:1004DC000080034648B30020D4F848114FF0010CBB
:1004EC00C3E900100246C4F84831C3F88801C3F8C8
:1004FC008C01002EDCD0012103EB8204C4F888901F
:10050C00D3F8880191400843022EC3F88801C4F83F
:10051C000881CDD1D3F88C010143C3F88C11C7E706
:10052C0004F5A673C4F84831BCE72868FFF7A8FFA8
:10053C004FF0FF30C5E700BF280400206805000815
:10054C0000000000F8B500BFF8BC08BC9E46704720
:0C055C00F8B500BFF8BC08BC9E46704714
:04056800000000206F
:08056C0035040008310100080C
:040574000D0100086D
:1005780000000000EC02002054030020BC0300200F
:100588000000000000000000000000000000000063
:100598000000000000000000000000000000000053
:1005A8000000000000000000000000000000000043
:1005B8000000000000000000000000000000000033
:1005C8000000000000000000000000000000000023
:1005D8000000000000000000000000000000000013
:1005E8000000000000000000000000000000000003
:1005F80000000000000000000000000000000000F3
:1006080000000000000000000000000000000000E2
:1006180000000000000000000100000000000000D1
:100628000E33CDAB34126DE6ECDE05000B00000096
:1006380000000000000000000000000000000000B2
:1006480000000000000000000000000000000000A2
:100658000000000000000000000000000000000092
:100668000000000000000000000000000000000082
:0C099800000000000000000048040020E7
:040000050800037577
:00000001FF
